:100000000C94BE010C94E6010C94E6010C94E601FC
:100010000C94E6010C94E6010C94E6010C94E601C4
:100020000C94E6010C94E6010C94E6010C94E601B4
:100030000C94E6010C94E6010C94E6010C94E601A4
:100040000C947C040C94E6010C94EC040C94C6040F
:100050000C94E6010C94E6010C94E6010C94E60184
:100060000C94E6010C94E601000000002300260039
:1000700029005265616420706572736F6E616C2037
:1000800064617461206F6E2061204D494641524584
:1000900020504943433A00556E6B6E6F776E207463
:1000A0007970650053414B20696E646963617465C2
:1000B0007320554944206973206E6F7420636F6DFF
:1000C000706C6574652E004D494641524520544E72
:1000D0005033585858004D494641524520444553E5
:1000E00046697265004D494641524520506C757312
:1000F000004D494641524520556C7472616C6967E8
:100100006874206F7220556C7472616C69676874D2
:100110002043004D494641524520344B42004D4951
:100120004641524520314B42004D494641524520FF
:100130004D696E692C20333230206279746573000A
:100140005049434320636F6D706C69616E74207712
:100150006974682049534F2F49454320313830395D
:100160003220284E464329005049434320636F6D97
:10017000706C69616E7420776974682049534F2FE1
:100180004945432031343434332D340050494343FE
:1001900020747970653A2000300043617264205306
:1001A000414B3A200020002030004361726420550A
:1001B00049443A000A2A2A456E64205265616469FE
:1001C0006E672A2A0A0052656164696E672066615B
:1001D000696C65643A200041757468656E74696382
:1001E0006174696F6E206661696C65643A200052C3
:1001F000656164696E67206661696C65643A2000B8
:1002000041757468656E7469636174696F6E2066A8
:1002100061696C65643A20004E616D653A20002A80
:100220002A436172642044657465637465643A2A84
:100230002A0000000008000201000003040700007B
:1002400000000000000000000000250028002B0036
:1002500000000000240027002A0004040404040411
:100260000404020202020202030303030303010265
:100270000408102040800102040810200102040834
:100280001020556E6B6E6F776E206572726F720004
:1002900041204D4946415245205049434320726513
:1002A00073706F6E6465642077697468204E414B8B
:1002B0002E00546865204352435F4120646F65738C
:1002C000206E6F74206D617463682E00496E7661D4
:1002D0006C696420617267756D656E742E00496E7D
:1002E0007465726E616C206572726F7220696E2027
:1002F00074686520636F64652E2053686F756C6445
:10030000206E6F742068617070656E2E00412062EF
:100310007566666572206973206E6F742062696706
:1003200020656E6F7567682E0054696D656F757412
:1003300020696E20636F6D6D756E69636174696F9E
:100340006E2E00436F6C6C697373696F6E20646509
:100350007465637465642E004572726F7220696EF5
:1003600020636F6D6D756E69636174696F6E2E00C9
:10037000537563636573732E0000B80911241FBEA3
:10038000CFEFD8E0DEBFCDBF11E0A0E0B1E0E0E507
:10039000F9E102C005900D92A236B107D9F722E02B
:1003A000A2E6B1E001C01D92A931B207E1F711E068
:1003B000CEEBD1E004C02197FE010E949B0CCD3B07
:1003C000D107C9F70E94EF090C94A60C0C94000009
:1003D0000F931F93CF93DF938C01C0E0D0E0F8011F
:1003E000EC0FFD1F6491662371F0E0916C01F091B8
:1003F0006D010190F081E02D8CE691E00995892B4B
:1004000011F02196ECCFCE01DF91CF911F910F918A
:10041000089590E0FC01E259FD4F2491FC01E65A59
:10042000FD4F8491882399F090E0880F991FFC017B
:10043000E05BFD4FA591B491FC01EA5BFD4F859116
:1004400094918FB7F894EC91E22BEC938FBF0895C1
:10045000833081F028F4813099F08230A1F0089542
:100460008730A9F08830B9F08430D1F480918000D1
:100470008F7D03C0809180008F77809380000895E6
:1004800084B58F7702C084B58F7D84BD0895809137
:10049000B0008F7703C08091B0008F7D8093B00053
:1004A00008953FB7F8948091680190916901A091F7
:1004B0006A01B0916B0126B5A89B05C02F3F19F0CA
:1004C0000196A11DB11D3FBFBA2FA92F982F8827D4
:1004D000820F911DA11DB11DBC01CD0142E0660F2F
:1004E000771F881F991F4A95D1F708958F929F9281
:1004F000AF92BF92CF92DF92EF92FF926B017C019D
:100500000E9451024B015C01C114D104E104F104C9
:10051000F1F00E945102DC01CB0188199909AA0966
:10052000BB09883E9340A105B10570F321E0C21AD2
:10053000D108E108F10888EE880E83E0981EA11C1E
:10054000B11CC114D104E104F10419F7DDCFFF900F
:10055000EF90DF90CF90BF90AF909F908F900895D5
:100560008CE691E00E944F0521E0892B09F420E000
:10057000822F0895009769F0FC0101900020E9F7AF
:100580003197AF01481B590BBC018CE691E00C94EC
:10059000650580E090E00895CF93DF930E94E80125
:1005A000EC018DE591E00E94BA028C0F9D1FDF9156
:1005B000CF9108958F929F92AF92BF920F931F9306
:1005C000CF93DF93CDB7DEB7A1970FB6F894DEBF18
:1005D0000FBECDBF19A2423008F44AE08E010F5D74
:1005E0001F4F842E912CA12CB12CA50194010E94A7
:1005F000790CE62FB901CA0101501109EA3014F44F
:10060000E05D01C0E95CD801EC93232B242B252B62
:1006100061F7C8010E94BA02A1960FB6F894DEBF36
:100620000FBECDBFDF91CF911F910F91BF90AF90C3
:100630009F908F9008958F92AF92BF92CF92DF924A
:10064000EF92FF920F93CF93DF936115710519F12C
:10065000FA0190819231F8F06A01EB0190E39883FE
:1006600089839B012E5F3F4F42E089E092E00E9428
:100670004306811111C081E08F93812CA12CB12CF4
:100680007E0104E09E0140E36CE089E092E00E947C
:100690008F060F9001C084E0DF91CF910F91FF9002
:1006A000EF90DF90CF90BF90AF908F9008958F9292
:1006B000AF92BF92CF92DF92EF92FF920F93CF93C0
:1006C000DF93CDB7DEB72C970FB6F894DEBF0FBE21
:1006D000CDBF90E699838A83FB01DE011396CB019F
:1006E000069621912D93E817F907D9F7E0910B02AF
:1006F000F0E0E85FFD4FDE011996CE010D962191E5
:100700002D93A817B907D9F71F92812CA12CB12CD2
:10071000C12CD12CE12CF12C0CE09E012F5F3F4F1E
:1007200040E16EE089E092E00E948F060F902C96E7
:100730000FB6F894DEBF0FBECDBFDF91CF910F9102
:10074000FF90EF90DF90CF90BF90AF908F90089583
:10075000EF92FF920F931F93CF93DF93EC0181E011
:10076000888F9B8D8C8D981305C0E889F9898081CD
:1007700085FD24C0F62E0B8D10E00F5F1F4F0F7309
:100780001127E02E8C8DE8120CC00FB607FCFACFB3
:10079000E889F989808185FFF5CFCE010E94A40503
:1007A000F1CF8B8DFE01E80FF11DE35AFF4FF08270
:1007B0000B8FEA89FB898081806207C0EE89FF89FF
:1007C0006083E889F98980818064808381E090E09A
:1007D000DF91CF911F910F91FF90EF900895CF93EC
:1007E000DF93EC01888D8823C9F0EA89FB89808139
:1007F00085FD05C0A889B9898C9186FD0FC00FB60B
:1008000007FCF5CF808185FFF2CFA889B9898C914B
:1008100085FFEDCFCE010E94A405E7CFDF91CF91F8
:1008200008951F93CF93DF93282F30E0F901EE5CFA
:10083000FD4F8491F901E259FD4FD491F901E65A37
:10084000FD4FC491CC23C9F0162F81110E942802BC
:10085000EC2FF0E0EE0FFF1FEA5BFD4FA591B49186
:100860008FB7F894111105C09C91ED2FE095E92305
:1008700002C0EC91ED2BEC938FBFDF91CF911F91D4
:100880000895CF92DF92EF92FF920F931F93CF9331
:10089000DF9300D0CDB7DEB78C01F62E83E590E074
:1008A00049835A830E94FC0560E0F80186850E9416
:1008B000110482E10E94F5054981E42EC42E5A817B
:1008C000D52E8C2D8E198F1530F4F60181916F0184
:1008D0000E94F505F6CF61E0F80186850E941104BB
:1008E0000F900F90DF91CF911F910F91FF90EF909C
:1008F000DF90CF900C94F4051F920F920FB60F92D9
:1009000011242F933F938F939F93AF93BF93809125
:10091000640190916501A0916601B09167013091E9
:10092000630123E0230F2D3720F40196A11DB11D93
:1009300005C026E8230F0296A11DB11D2093630177
:100940008093640190936501A0936601B093670161
:100950008091680190916901A0916A01B0916B0149
:100960000196A11DB11D8093680190936901A09328
:100970006A01B0936B01BF91AF919F918F913F91AD
:100980002F910F900FBE0F901F9018951F920F92EE
:100990000FB60F9211242F933F934F935F936F9352
:1009A0007F938F939F93AF93BF93EF93FF938CE6C7
:1009B00091E00E94A405FF91EF91BF91AF919F91AB
:1009C0008F917F916F915F914F913F912F910F90F8
:1009D0000FBE0F901F9018951F920F920FB60F9297
:1009E00011242F938F939F93EF93FF93E0917C01BA
:1009F000F0917D018081E0918201F091830182FD7F
:100A000012C09081809185018F5F8F732091860144
:100A1000821751F0E0918501F0E0E459FE4F958F87
:100A20008093850101C08081FF91EF919F918F910B
:100A30002F910F900FBE0F901F901895FC01538DB2
:100A4000448D252F30E0842F90E0821B930B5417A8
:100A500010F0CF96089501970895FC01918D828D35
:100A6000981761F0828DDF01A80FB11D5D968C9102
:100A7000928D9F5F9F73928F90E008958FEF9FEF0D
:100A80000895FC01918D828D981731F0828DE80FC9
:100A9000F11D858D90E008958FEF9FEF0895FC0183
:100AA000918D228D892F90E0805C9F4F821B910950
:100AB0008F739927089580E090E0892B29F00E9498
:100AC000B00281110C9400000895CF92DF92EF9252
:100AD000FF920F931F93CF93DF936C017A018B01E9
:100AE000C0E0D0E0CE15DF0589F0D8016D918D0111
:100AF000D601ED91FC910190F081E02DC6010995A0
:100B0000892B11F47E0102C02196ECCFC701DF9141
:100B1000CF911F910F91FF90EF90DF90CF900895AC
:100B2000089580E090E00895DC01ED91FD91BD0114
:100B30000190F081E02D40E0099591E0811190E075
:100B4000892F08950E94A10CFC01848DDF01A80F5C
:100B5000B11DA35ABF4F2C91848D90E001968F73E5
:100B60009927848FA689B7892C93A089B1898C9104
:100B700080648C93938D848D981306C00288F389CA
:100B8000E02D80818F7D808308958430D9F050F4EA
:100B9000813091F030F1823091F08330F9F489E2C4
:100BA00093E008958630A1F080F08730A1F08F3F68
:100BB000A9F480E992E0089588E593E0089583E43C
:100BC00093E008958DE093E008958EED92E008950E
:100BD0008CEC92E0089582EB92E0089582E892E036
:100BE000089580E793E0089508958EBD00000DB448
:100BF00007FEFDCF8EB508958CBD9DBD08951F9352
:100C0000CF93DF93EC01162F83E590E00E94FC0563
:100C100060E08E850E941104812F80680E94F50596
:100C200080E00E94F505182F61E08E850E94110476
:100C3000812FDF91CF911F910895EF92FF921F9323
:100C4000CF93DF931F92CDB7DEB77C01162F83E5DC
:100C500090E049830E94FC0560E0F70186850E94D0
:100C60001104812F0E94F5054981842F0E94F5050A
:100C700061E0F70186850F90DF91CF911F91FF9082
:100C8000EF900C941104CF92DF92EF92FF920F93AA
:100C90001F93CF93DF93EC016B01142F790140E098
:100CA00062E00E941D0644E06AE0CE010E941D063B
:100CB00040E864E1CE010E941D06A601612FCE012D
:100CC0000E94410443E062E0CE010E941D0608E854
:100CD00013E16AE0CE010E94FF0582FF13C040E0ED
:100CE00062E0CE010E941D0664E4CE010E94FF0571
:100CF000F701808362E4CE010E94FF05F701818342
:100D000080E004C00150110921F783E0DF91CF9109
:100D10001F910F91FF90EF90DF90CF9008953F9239
:100D20004F925F926F927F928F929F92AF92BF92FB
:100D3000CF92DF92EF92FF920F931F93CF93DF93A7
:100D400000D0CDB7DEB73C01162F942E2901A11497
:100D5000B10419F0F501408101C040E0342EF0E10A
:100D60008F9E300C112440E062E0C3010E941D06FA
:100D70004FE768E0C3010E941D0640E864E1C3013B
:100D80000E941D06A201602FC3010E944104432D51
:100D90006AE1C3010E941D06412F62E0C3010E9467
:100DA0001D061C3051F46AE1C3010E94FF05482F63
:100DB00040686AE1C3010E941D0600ED17E068E08B
:100DC000C3010E94FF05982F992139F480FD03C0CB
:100DD00001501109A1F783E0A2C06CE0C3010E9499
:100DE000FF05982E837109F099C0E114F10409F40C
:100DF0005AC0C114D10409F456C064E1C3010E9471
:100E0000FF05182FF6018081811708F481C0108337
:100E10001123F1F183E590E00E94FC0560E0F3010D
:100E200086850E94110482E90E94F5058820A1F0C0
:100E30008FEF90E02C0101C0440C8A94EAF782E91C
:100E40000E94F50584214094F70190814922482AA7
:100E500040828824839401C0812C55245A94510ED9
:100E6000282D30E08701020F131F851438F482E922
:100E70000E94F505F80180838394F2CF80E00E9400
:100E8000F505F801808361E0F30186850E94110475
:100E900068E1C3010E94FF058770A114B10421F02D
:100EA000F501808301C080E093FC34C0E114F104BB
:100EB00099F1C114D10481F19E89992369F1F60158
:100EC0004081413019F4843019F420C0423010F4CC
:100ED00087E025C08111FCCF42509E012F5F3F4F1C
:100EE000B701C3010E944306811119C0F601808138
:100EF000E80EF11CF7013297908189819813E8CFB1
:100F0000319690818A819813E3CF06C08FEF07C096
:100F100084E005C082E003C080E001C081E00F9062
:100F20000F90DF91CF911F910F91FF90EF90DF9085
:100F3000CF90BF90AF909F908F907F906F905F9079
:100F40004F903F900895EF92FF921F93CF93DF93BE
:100F50001F92CDB7DEB77C01162F49830E94FF0593
:100F6000498140954823612FC7010F90DF91CF91B0
:100F70001F91FF90EF900C941D066F927F928F92BD
:100F8000AF92BF92CF92DF92EF92FF920F93CF93E7
:100F9000DF9300D000D01F92CDB7DEB73C0182E0D6
:100FA0008D8340E064E2C3010E941D0640E066E2DA
:100FB000C3010E941D0646E268E4C3010E941D06AB
:100FC00086E28C838D81823020F140E86CE1C301A0
:100FD0000E94A30787E08B831F92812CCE0103968A
:100FE0005C0102966C0104977C0101E09E012C5F7C
:100FF0003F4F40E36CE0C3010E948F060F908111C8
:101000000BC08D81823039F481E09B81911104C045
:1010100008C084E001C081E091E0823019F090E0E6
:1010200001C091E0892F0F900F900F900F900F90BB
:10103000DF91CF910F91FF90EF90DF90CF90BF9015
:10104000AF908F907F906F9008952F923F924F9224
:101050005F926F927F928F929F92AF92BF92CF9248
:10106000DF92EF92FF920F931F93CF93DF93CDB751
:10107000DEB72D970FB6F894DEBF0FBECDBF41355A
:1010800008F00BC14C872B013C0140E86CE10E9449
:10109000A30751E0523091F05330F1F0513009F094
:1010A00000C183E989832C852223D9F081E0F201F4
:1010B0009081953008F480E0912C18C085E98983EF
:1010C000FC85FF2381F081E0F2019081983008F4E3
:1010D00080E043E0942E0AC087E9898336E0932EAE
:1010E00004C0912C02C023E0922E80E01C85F8EF12
:1010F0009F9E100D112417FD10E0882321F098E821
:101100009B8343E001C042E021E0912F977009F4F6
:1011100020E0912F959595959595290F29F4882391
:1011200009F499C0185F97C0811102C094E001C012
:1011300093E0291708F4922F20E030E0692D70E049
:10114000E42FE20FA1E0B0E0AC0FBD1FAE0FB11D68
:10115000F901E60FF71FE40DF51DE181EC932F5F18
:101160003F4F291768F3DBCF8111E9C010320CF033
:101170009AC010E220E72A839C818B8189279D8178
:1011800089279E8189278F839E01285F3F4F47E0F3
:10119000BE016F5F7F4FC3015D870E9443065D857F
:1011A0008111CDC01B8633E03A87CE0107961C0122
:1011B00009E08B84482D4295407F480D6AE1C301C8
:1011C0005D870E941D061F929E01255F3F4F5901BA
:1011D000CE010A966C0171012A50310940E36CE09E
:1011E000C3010E948F060F905D85823009F0BCCF4D
:1011F0006CE1C3010E94FF055D8585FD50C08F71C4
:1012000009F480E2282F30E0612F110F770B62176D
:1012100073070CF046C0182FC901019787709927F2
:1012200025952595259531E0320F21E0009709F4A9
:1012300020E0230FE1E0F0E0EC0FFD1FE20FF11DD5
:1012400021E030E002C0220F331F8A95E2F7C90186
:101250009081892B808310320CF08CCF912F977066
:101260009B87212F25952595259582E0820F392F83
:10127000E0E18E9F300D11243A8301E0911101C00D
:1012800000E0080F22242394312C2C0E3D1E280E42
:10129000311C87E0821B8A878CCF86E050C082E0B9
:1012A0004EC085E04CC08B81883809F045C033E0E2
:1012B00023E080E090E0692D70E0FC01E60FF71F6D
:1012C000E40DF51D432F480FA1E0B0E0AC0FBD1FAA
:1012D000A40FB11D4C9141830196821770F38A854A
:1012E000833031F58B85811123C09E012D5F3F4FE7
:1012F00041E0B101C3015D870E9443065D85811114
:101300001EC09B81F1018181981314C09C81828150
:10131000981310C0808182FF02C05F5FBBCEF201D4
:101320008387852F880F580F5F5F508380E007C049
:1013300081E005C087E003C032E024E0BACF2D96FB
:101340000FB6F894DEBF0FBECDBFDF91CF911F91D6
:101350000F91FF90EF90DF90CF90BF90AF909F9054
:101360008F907F906F905F904F903F902F90089557
:10137000ECE6F1E01382128288EE93E0A0E0B0E0A8
:1013800084839583A683B78385E491E091838083EA
:1013900085EC90E09587848784EC90E0978786873A
:1013A00080EC90E0918B808B81EC90E0938B828B32
:1013B00082EC90E0958B848B86EC90E0978B868B0B
:1013C000118E128E138E148EE9E0F2E087E591E023
:1013D000918380838AE0868789E087870895CF9309
:1013E000DF93CDB7DEB7AF970FB6F894DEBF0FBE71
:1013F000CDBF789484B5826084BD84B5816084BD9E
:1014000085B5826085BD85B5816085BD80916E00A2
:10141000816080936E0010928100809181008260D3
:101420008093810080918100816080938100809110
:1014300080008160809380008091B10084608093FF
:10144000B1008091B00081608093B00080917A00FB
:10145000846080937A0080917A00826080937A0021
:1014600080917A00816080937A0080917A00806810
:1014700080937A001092C100E0917C01F0917D018F
:1014800082E08083E0917801F09179011082E0910F
:101490007A01F0917B018FEC808310928401E091BE
:1014A0008001F091810186E08083E0917E01F091DE
:1014B0007F01808180618083E0917E01F0917F01D6
:1014C000808188608083E0917E01F0917F0180813E
:1014D00080688083E0917E01F0917F0180818F7D23
:1014E00080831FB7F89480916201811124C0E4E6E3
:1014F000F2E08491E8E7F2E09491E82FF0E0EE0F5B
:10150000FF1FE05BFD4FA591B491EC91E92321F41D
:1015100061E08AE00E9411048AE00E9409028CB511
:1015200080618CBD8CB580648CBD8DE00E94090209
:101530008BE00E940902809162018F5F80936201BB
:101540001FBF809117020E94090261E0809117027B
:101550000E941104809118028F3F69F44FE062E00D
:1015600089E092E00E941D0662E370E080E090E076
:101570000E94760224C00E9409022091180230E0E5
:10158000F901EE5CFD4F8491F901E259FD4F949011
:10159000F901E65AFD4F1491112309F49EC18111FE
:1015A0000E942802E12FF0E0EE0FFF1FE859FF4FE5
:1015B000A591B491EC91E92109F48FC1CFCF62E0FC
:1015C00089E092E00E94FF0584FDF9CF40E064E2EB
:1015D00089E092E00E941D0640E066E289E092E028
:1015E0000E941D0646E268E489E092E00E941D0622
:1015F00040E864E589E092E00E941D0649EA66E55C
:1016000089E092E00E941D0643E068E589E092E0EF
:101610000E941D0648EE6AE589E092E00E941D06E0
:1016200040E46AE289E092E00E941D064DE362E236
:1016300089E092E00E941D0668E289E092E00E9443
:10164000FF05982F9370933039F0482F436068E27C
:1016500089E092E00E941D0682E790E00E94CC02A1
:101660003E0123E1620E711C80E1982E960CCE01A2
:1016700001962C0190E1392E340C8FEF8DA38EA3AF
:101680008FA388A789A78AA789E092E00E94BD0757
:10169000882309F41FC189E092E00E949405882301
:1016A00009F418C18FE192E00E94CC028AEA91E02D
:1016B0000E94E80110E080910B021817D0F4812FEE
:1016C00090E0FC01E75FFD4F7F018381803118F4DA
:1016D00087EA91E002C085EA91E00E94E801F70103
:1016E000638170E080E090E040E10E94DA021F5FD9
:1016F000E2CF8DE591E00E94BA028AE991E00E9472
:10170000E80180911602803120F488E991E00E947E
:10171000E8016091160270E080E090E040E10E94F4
:10172000DA028DE591E00E94BA02E0911602EF77AD
:10173000E13428F4F0E0E050FF4F108101C010E0E8
:101740008CE891E00E94E801153029F168F412302C
:10175000E1F018F4113071F12AC01330C9F01430DF
:1017600031F58EE191E028C01830D9F038F4163008
:10177000A9F01730E1F485EE90E01EC01930A1F019
:101780001F3FA9F484EA90E017C080E491E014C000
:1017900089E291E011C083E191E00EC081EF90E019
:1017A0000BC086ED90E008C087EC90E005C087E9AB
:1017B00090E002C088E691E00E94CC0288E192E0CD
:1017C0000E94E80182E18FA7BE016B5D7F4F84E03C
:1017D0000E945703182F882319F080E092E035C04B
:1017E000AE01415D5F4FB30184E00E941B03182FDF
:1017F000882319F08FEE91E028C07301F701619101
:101800007F01603221F08CE691E00E94A8039E10D7
:10181000F5CF80E691E00E94BA02BE016B5D7F4F7A
:1018200081E00E945703182F882319F087ED91E07B
:101830000CC0AE01415D5F4FB20181E00E941B030D
:10184000182F882351F086EC91E00E94E801812F47
:101850000E94C5050E94CC023DC07201F701619152
:101860007F018CE691E00E94A8033E10F7CF84EB45
:1018700091E00E94CC0268EE73E080E090E00E946C
:10188000760280E58BA71CA69E01235D3F4F42E0B8
:10189000BE01655D7F4F89E092E00E9443068111A1
:1018A00013C01F92812CA12CB12CC12CD12CE12C66
:1018B000F12C04E09E01255D3F4F40E36CE089E0A0
:1018C00092E00E948F060F9048E060E189E092E08C
:1018D0000E94A3070E945B05D0CE61E080911802B0
:1018E0000E94110462E370E080E090E00E947602C2
:1018F0006DCEA1E21A2EAA1BBB1BFD010DC0AA1FB3
:10190000BB1FEE1FFF1FA217B307E407F50720F068
:10191000A21BB30BE40BF50B661F771F881F991FE3
:101920001A9469F760957095809590959B01AC012C
:10193000BD01CF010895EE0FFF1F0590F491E02D3A
:10194000099481E090E0F8940C94A60CF894FFCFF1
:1019500006090000FF000000040300000000000072
:101960000707000000000000050000000000000064
:101970000100000000000000000000000000000066
:101980000000000000000000000000000000000057
:101990000200000000A80365051E05EF034F052D9A
:1019A000054105000000002508BD0794050D0A004B
:0219B000200015
:00000001FF
