:100000000C945D000C9485000C9485000C94850084
:100010000C9485000C9485000C9485000C9485004C
:100020000C9485000C9485000C9485000C9485003C
:100030000C9485000C9485000C9485000C9485002C
:100040000C9433030C9485000C94A3030C947D034F
:100050000C9485000C9485000C9485000C9485000C
:100060000C9485000C94850000000008000201003B
:100070000003040700000000000000000000000072
:10008000250028002B0000000000240027002A0083
:10009000040404040404040402020202020203032E
:1000A0000303030301020408102040800102040836
:1000B0001020010204081020D50311241FBECFEF29
:1000C000D8E0DEBFCDBF11E0A0E0B1E0E0E5FBE0AD
:1000D00002C005900D92A432B107D9F721E0A4E245
:1000E000B1E001C01D92A93DB207E1F710E0CDE5F6
:1000F000D0E004C02197FE010E949B05CC35D107BA
:10010000C9F70E941D040C94A6050C94000090E011
:10011000FC01EC55FF4F2491FC01E057FF4F849107
:10012000882399F090E0880F991FFC01EA57FF4F50
:10013000A591B491FC01E458FF4F859194918FB73C
:10014000F894EC91E22BEC938FBF089590E0FC01C2
:10015000E859FF4F3491FC01EC55FF4F2491FC010D
:10016000E057FF4FE491EE2309F43BC0332339F10C
:10017000333091F038F43130A9F0323001F584B5E4
:100180008F7D12C0373091F03830A1F03430B9F49F
:10019000809180008F7D03C0809180008F77809355
:1001A00080000DC084B58F7784BD09C08091B000F8
:1001B0008F7703C08091B0008F7D8093B000F0E016
:1001C000EE0FFF1FE458FF4FA591B4918FB7F8943D
:1001D000EC91611103C020952E2301C02E2B2C938E
:1001E0008FBF08953FB7F89480912A0190912B0119
:1001F000A0912C01B0912D0126B5A89B05C02F3FE1
:1002000019F00196A11DB11D3FBFBA2FA92F982F3C
:100210008827820F911DA11DB11DBC01CD0142E0B7
:10022000660F771F881F991F4A95D1F70895FC0123
:10023000538D448D252F30E0842F90E0821B930B4B
:10024000541710F0CF96089501970895FC01918DF1
:10025000828D981761F0828DDF01A80FB11D5D9628
:100260008C91928D9F5F9F73928F90E008958FEF96
:100270009FEF0895FC01918D828D981731F0828D4A
:10028000E80FF11D858D90E008958FEF9FEF0895A1
:10029000FC01918D228D892F90E0805C9F4F821B05
:1002A00091098F73992708958EE291E00E94480189
:1002B00021E0892B09F420E0822F0895FC01848D30
:1002C000DF01A80FB11DA35ABF4F2C91848D90E080
:1002D00001968F739927848FA689B7892C93A0895B
:1002E000B1898C9180648C93938D848D981306C012
:1002F0000288F389E02D80818F7D80830895EF92BD
:10030000FF920F931F93CF93DF93EC0181E0888FCF
:100310009B8D8C8D981305C0E889F989808185FDB6
:1003200024C0F62E0B8D10E00F5F1F4F0F731127A7
:10033000E02E8C8DE8120CC00FB607FCFACFE889CE
:10034000F989808185FFF5CFCE010E945E01F1CF52
:100350008B8DFE01E80FF11DE35AFF4FF0820B8FEA
:10036000EA89FB898081806207C0EE89FF8960830A
:10037000E889F98980818064808381E090E0DF9161
:10038000CF911F910F91FF90EF900895CF93DF933E
:10039000EC01888D8823C9F0EA89FB89808185FD7D
:1003A00005C0A889B9898C9186FD0FC00FB607FCDE
:1003B000F5CF808185FFF2CFA889B9898C9185FF1F
:1003C000EDCFCE010E945E01E7CFDF91CF9108957E
:1003D00080E090E0892B29F00E94540181110C9457
:1003E00000000895CF92DF92EF92FF920F931F9338
:1003F000CF93DF936C017A018B01C0E0D0E0CE1582
:10040000DF0589F0D8016D918D01D601ED91FC9148
:100410000190F081E02DC6010995892B11F47E0130
:1004200002C02196ECCFC701DF91CF911F910F91B0
:10043000FF90EF90DF90CF900895089580E090E0D6
:1004400008958EBD00000DB407FEFDCF8EB5089552
:100450000F931F93CF93DF93C82FD62F0BEC11E090
:1004600060E0F80182850E94A6008C2F880F8E77AD
:100470000E9421028D2F0E94210261E0F8018285F5
:10048000DF91CF911F910F910C94A6000F931F93B2
:10049000CF93C82F0BEC11E060E0F80182850E9439
:1004A000A6008C2F880F8E7780680E94210280E042
:1004B0000E942102C82F61E0F80182850E94A600F7
:1004C0008C2FCF911F910F9108951F93CF93DF939E
:1004D0001F92CDB7DEB7182F69830E94460269814B
:1004E000682B812F0F90DF91CF911F910C942802E0
:1004F0008F929F92AF92BF92CF92DF92EF92FF9234
:100500000F931F93CF93DF931F92CDB7DEB75C019C
:10051000E62E4A01890167EF82E00E94280284E00A
:100520000E944602682F6F7784E00E94280260E8EC
:100530008AE00E94650260E081E00E942802650175
:10054000F12CC6018A199B098E159F0538F4F60116
:1005500061916F0189E00E942802F3CF6CE081E095
:100560000E94280260E88DE00E94650240EDE42EC2
:1005700047E0F42E84E00E944602D82EF1E0EF1A04
:10058000F10811F08173B1F38DE00E944602682FEB
:100590006F778DE00E942802EF2819F432E0F32EE5
:1005A0003FC086E00E9446028B71C1F78D2D81709D
:1005B000F82E8AE00E944602982F8CE099830E94D0
:1005C000460287709981692F70E0882351F061504D
:1005D000710923E0660F771F2A95E1F7680F711DF7
:1005E00005C083E0660F771F8A95E1F7F8017183F4
:1005F0006083992321F0913118F090E101C091E0DE
:100600006401092F10E0C601881999098017910724
:1006100038F489E00E944602F60181936F01F3CF1E
:100620008F2D0F90DF91CF911F910F91FF90EF9041
:10063000DF90CF90BF90AF909F908F9008950097DC
:1006400069F0FC0101900020E9F73197AF01481BE8
:10065000590BBC018EE291E00C94F20180E090E035
:1006600008950E94A1051F920F920FB60F921124B8
:100670002F933F938F939F93AF93BF9380912601C6
:1006800090912701A0912801B09129013091250175
:1006900023E0230F2D3720F40196A11DB11D05C0C5
:1006A00026E8230F0296A11DB11D209325018093FA
:1006B000260190932701A0932801B09329018091EE
:1006C0002A0190912B01A0912C01B0912D0101964E
:1006D000A11DB11D80932A0190932B01A0932C01A1
:1006E000B0932D01BF91AF919F918F913F912F9129
:1006F0000F900FBE0F901F9018951F920F920FB67C
:100700000F9211242F933F934F935F936F937F9397
:100710008F939F93AF93BF93EF93FF938EE291E0FC
:100720000E945E01FF91EF91BF91AF919F918F91D8
:100730007F916F915F914F913F912F910F900FBEDD
:100740000F901F9018951F920F920FB60F921124C1
:100750002F938F939F93EF93FF93E0913E01F0913E
:100760003F018081E0914401F091450182FD12C07A
:100770009081809147018F5F8F732091480182178C
:1007800051F0E0914701F0E0E25DFE4F958F8093DC
:10079000470101C08081FF91EF919F918F912F912F
:1007A0000F900FBE0F901F901895CF93DF93EEE23E
:1007B000F1E01382128288EE93E0A0E0B0E084833F
:1007C0009583A683B78384E091E09183808385EC51
:1007D00090E09587848784EC90E09787868780EC0B
:1007E00090E0918B808B81EC90E0938B828B82ECFC
:1007F00090E0958B848B86EC90E0978B868B118EA6
:10080000128E138E148ECBECD1E08AE090E09B87A1
:100810008A870E94870060E08A850E94A60089E09E
:100820000E94870061E089E00E94A60089E090E0D4
:100830009D878C87DF91CF910895CF93DF93CDB7BC
:10084000DEB7A3970FB6F894DEBF0FBECDBF789486
:1008500084B5826084BD84B5816084BD85B58260C5
:1008600085BD85B5816085BD80916E008160809376
:100870006E001092810080918100826080938100DF
:1008800080918100816080938100809180008160EF
:10089000809380008091B10084608093B10080914A
:1008A000B00081608093B00080917A008460809372
:1008B0007A0080917A00826080937A0080917A0039
:1008C000816080937A0080917A00806880937A00BA
:1008D0001092C100E0913E01F0913F0182E08083DF
:1008E000E0913A01F0913B011082E0913C01F091DE
:1008F0003D018FEC808310924601E0914201F0911E
:10090000430186E08083E0914001F09141018081C4
:1009100080618083E0914001F09141018081886095
:100920008083E0914001F091410180818068808363
:10093000E0914001F091410180818F7D80831FB75C
:10094000F89480912401811124C0EAE9F0E08491B7
:10095000EEEAF0E09491E82FF0E0EE0FFF1FEA5787
:10096000FF4FA591B491EC91E92321F461E08AE075
:100970000E94A6008AE00E9487008CB580618CBD31
:100980008CB580648CBD8DE00E9487008BE00E9456
:100990008700809124018F5F809324011FBF61E055
:1009A0008091D7010E94A6006FE081E00E9428029A
:1009B0006DE88AE20E9428026EE38BE20E94280220
:1009C0006EE18DE20E94280260E08CE20E94280223
:1009D00060E485E10E9428026DE381E10E94280223
:1009E00084E10E944602837021F463E084E10E9466
:1009F0006502A6E29A2EB3E98B2E10E2B12E05E035
:100A0000A02E67E08DE00E94280299829E012E5D53
:100A10003F4FAE014F5F5F4F61E0CA010E94780215
:100A200081115FC08AA19BA1409709F05AC060E084
:100A30008DE00E9428028982BA829E012E5D3F4F7E
:100A4000AE014F5F5F4F62E0CA010E947802FE0173
:100A50003196ABECB1E08A2D01900D928A95E1F7C9
:100A600082E191E00E941F0381E291E00E941F0356
:100A7000FBECEF2EF1E0FF2EF70141917F0150E0FA
:100A800060E070E019A2CE0181968A019B010F708F
:100A9000112722273327E4E07695679557954795E8
:100AA000EA95D1F701970A3011052105310510F4B7
:100AB000005D01C0095CFC01008341155105610521
:100AC000710519F70E941F03F0EDEF16F1E0FF0624
:100AD00099F681E291E00E941F0381E291E00E9479
:100AE0001F030E94F2006B017C0188EE482E83E018
:100AF000582E612C712C0E94F200DC01CB018C1964
:100B00009D09AE09BF09883E9340A105B10558F083
:100B100021E0421A51086108710888EEC80E83E08E
:100B2000D81EE11CF11C411451046104710419F731
:100B30000E94E80166CFEE0FFF1F0590F491E02DB3
:100B4000099481E090E0F8940C94A605F894FFCF06
:100B5000000000007F01F2011701C60148012601D3
:100B60003A01436172642064657465637465643A34
:040B7000000D0A006A
:00000001FF
