:100000000C9443010C946B010C946B010C946B01E8
:100010000C946B010C946B010C946B010C946B01B0
:100020000C946B010C946B010C946B010C946B01A0
:100030000C946B010C946B010C946B010C946B0190
:100040000C94BC070C946B010C942C080C940608BF
:100050000C946B010C946B010C946B010C946B0170
:100060000C946B010C946B0100000000230026002F
:1000700029005573696E672074686520666F6C6C23
:100080006F77696E67206B65793A005468697320F1
:10009000636F6465207363616E20746865204D49E9
:1000A0004641524520436C617373736963204E551A
:1000B00049442E00556E6B6E6F776E2074797065B3
:1000C0000053414B20696E64696361746573205508
:1000D0004944206973206E6F7420636F6D706C6586
:1000E00074652E004D494641524520544E503358B8
:1000F0005858004D4946415245204445534669727F
:1001000065004D494641524520506C7573004D497C
:100110004641524520556C7472616C696768742061
:100120006F7220556C7472616C696768742043004B
:100130004D494641524520344B42004D49464152BB
:100140004520314B42004D4946415245204D696E94
:10015000692C203332302062797465730050494332
:100160004320636F6D706C69616E74207769746889
:100170002049534F2F494543203138303932202808
:100180004E464329005049434320636F6D706C69AC
:10019000616E7420776974682049534F2F49454335
:1001A0002031343434332D3400436172642072655D
:1001B00061642070726576696F75736C792E004981
:1001C0006E206465633A2000496E206865783A20A5
:1001D00000546865204E5549442074616720697356
:1001E0003A0041206E657720636172642068617314
:1001F000206265656E2064657465637465642E00B5
:10020000596F757220746167206973206E6F742056
:100210006F662074797065204D49464152452043F0
:100220006C61737369632E00504943432074797085
:10023000653A2000000000080002010000030407E6
:100240000000000000000000000000002500280061
:100250002B0000000000240027002A0004040404EE
:100260000404040402020202020203030303030360
:10027000010204081020408001020408102001023D
:10028000040810205E0811241FBECFEFD8E0DEBFA7
:10029000CDBF11E0A0E0B1E0ECE1F6E102C00590D5
:1002A0000D92A636B107D9F722E0A6E6B1E001C06B
:1002B0001D92A732B207E1F711E0C3E4D1E004C018
:1002C0002197FE010E94010BC234D107C9F70E9499
:1002D00095080C940C0B0C9400000F931F93CF9374
:1002E000DF938C01C0E0D0E0F801EC0FFD1F6491BA
:1002F000662371F0E0917A01F0917B010190F08129
:10030000E02D8AE791E00995892B11F02196ECCF39
:10031000CE01DF91CF911F910F91089590E0FC01E4
:10032000E059FD4F2491FC01E45AFD4F849188234C
:1003300099F090E0880F991FFC01EE5AFD4FA591AE
:10034000B491FC01E85BFD4F859194918FB7F894CF
:10035000EC91E22BEC938FBF0895833081F028F469
:10036000813099F08230A1F008958730A9F088306B
:10037000B9F08430D1F4809180008F7D03C08091EA
:1003800080008F7780938000089584B58F7702C0B6
:1003900084B58F7D84BD08958091B0008F7703C0B0
:1003A0008091B0008F7D8093B00008951F93CF930C
:1003B000DF93282F30E0F901EC5CFD4F8491F901C7
:1003C000E059FD4FD491F901E45AFD4FC491CC237B
:1003D000C9F0162F81110E94AD01EC2FF0E0EE0F55
:1003E000FF1FE85BFD4FA591B4918FB7F8941111F1
:1003F00005C09C91ED2FE095E92302C0EC91ED2B17
:10040000EC938FBFDF91CF911F9108953FB7F89480
:100410008091760190917701A0917801B091790156
:1004200026B5A89B05C02F3F19F00196A11DB11D4F
:100430003FBFBA2FA92F982F8827820F911DA11D8A
:10044000B11DBC01CD0142E0660F771F881F991FC7
:100450004A95D1F708958F929F92AF92BF92CF9213
:10046000DF92EF92FF920E9406024B015C0182E351
:10047000C82ED12CE12CF12C0E940602DC01CB010C
:1004800088199909AA09BB09883E9340A105B105BD
:1004900058F021E0C21AD108E108F10888EE880E70
:1004A00083E0981EA11CB11CC114D104E104F10425
:1004B00019F7FF90EF90DF90CF90BF90AF909F9093
:1004C0008F900895FC01538D448D252F30E0842FAB
:1004D00090E0821B930B541710F0CF96089501976C
:1004E0000895FC01918D828D981761F0828DDF0156
:1004F000A80FB11D5D968C91928D9F5F9F73928F17
:1005000090E008958FEF9FEF0895FC01918D828D0B
:10051000981731F0828DE80FF11D858D90E00895D8
:100520008FEF9FEF0895FC01918D228D892F90E030
:10053000805C9F4F821B91098F73992708958AE7EA
:1005400091E00E94930221E0892B09F420E0822FA0
:100550000895FC01848DDF01A80FB11DA35ABF4F80
:100560002C91848D90E001968F739927848FA689B2
:10057000B7892C93A089B1898C9180648C93938DD9
:10058000848D981306C00288F389E02D80818F7DC9
:1005900080830895EF92FF920F931F93CF93DF9381
:1005A000EC0181E0888F9B8D8C8D981305C0E889C4
:1005B000F989808185FD24C0F62E0B8D10E00F5F38
:1005C0001F4F0F731127E02E8C8DE8120CC00FB651
:1005D00007FCFACFE889F989808185FFF5CFCE0144
:1005E0000E94A902F1CF8B8DFE01E80FF11DE35AA5
:1005F000FF4FF0820B8FEA89FB898081806207C000
:10060000EE89FF896083E889F9898081806480832D
:1006100081E090E0DF91CF911F910F91FF90EF90DB
:100620000895CF93DF93EC01888D8823C9F0EA8980
:10063000FB89808185FD05C0A889B9898C9186FDDB
:100640000FC00FB607FCF5CF808185FFF2CFA889D8
:10065000B9898C9185FFEDCFCE010E94A902E7CF29
:10066000DF91CF91089580E090E0892B29F00E94DE
:100670009F0281110C9400000895CF92DF92EF92B7
:10068000FF920F931F93CF93DF936C017A018B013D
:10069000C0E0D0E0CE15DF0589F0D8016D918D0165
:1006A000D601ED91FC910190F081E02DC6010995F4
:1006B000892B11F47E0102C02196ECCFC701DF9196
:1006C000CF911F910F91FF90EF90DF90CF90089501
:1006D000089580E090E00895DC01ED91FD91BD0169
:1006E0000190F081E02D40E0099591E0811190E0CA
:1006F000892F089508958EBD00000DB407FEFDCF2B
:100700008EB508958CBD9DBD0895009769F0FC01DC
:1007100001900020E9F73197AF01481B590BBC014C
:100720008AE791E00C943D0380E090E008958F9279
:100730009F92AF92BF920F931F93CF93DF93CDB74A
:10074000DEB7A1970FB6F894DEBF0FBECDBF19A2DA
:10075000423008F44AE08E010F5D1F4F842E912C29
:10076000A12CB12CA50194010E94DF0AE62FB9014A
:10077000CA0101501109EA3014F4E05D01C0E95CDE
:10078000D801EC93232B242B252B61F7C8010E9461
:100790008503A1960FB6F894DEBF0FBECDBFDF91E3
:1007A000CF911F910F91BF90AF909F908F90089520
:1007B000CF93DF930E946D01EC018DE591E00E94E3
:1007C00085038C0F9D1FDF91CF910895EF92FF92CB
:1007D0000F931F93CF93DF93162F082FEC018C2FCD
:1007E000801B8117A8F47E018881803118F083E690
:1007F00091E002C080E691E00E9485032196F70116
:10080000608170E080E090E040E10E949703E7CFD4
:10081000DF91CF911F910F91FF90EF9008951F935B
:10082000CF93DF93EC01162F83E590E00E948203C3
:1008300060E08E850E94D601812F80680E947B0334
:1008400080E00E947B03182F61E08E850E94D60114
:10085000812FDF91CF911F910895CF92DF92EF9278
:10086000FF920F931F93CF93DF9300D0CDB7DEB7E6
:100870008C01F62E83E590E049835A830E9482031F
:1008800060E0F80186850E94D60182E10E947B0328
:100890004981E42EC42E5A81D52E8C2D8E198F15A8
:1008A00030F4F60181916F010E947B03F6CF61E085
:1008B000F80186850F900F90DF91CF911F910F91D6
:1008C000FF90EF90DF90CF900C94D601EF92FF92C3
:1008D0001F93CF93DF931F92CDB7DEB77C01162F06
:1008E00083E590E049830E94820360E0F7018685FA
:1008F0000E94D601812F0E947B034981842F0E9490
:100900007B0361E0F70186850F90DF91CF911F9106
:10091000FF90EF900C94D6016F927F928F929F92EE
:10092000AF92BF92CF92DF92EF92FF920F931F93FD
:10093000CF93DF93EC014B01D42E59013801E11420
:10094000F10419F0F701808101C080E0182FF0E177
:10095000CF9E100D112440E062E0CE010E9466049B
:100960004FE768E0CE010E94660440E864E1CE01F2
:100970000E946604A4016D2DCE010E942D04412F1A
:100980006AE1CE010E9466044CE062E0CE010E9462
:1009900066046AE1CE010E940F04482F40686AE1B4
:1009A000CE010E94660400ED17E068E0CE010E94CF
:1009B0000F04982F907339F480FD03C00150110982
:1009C000A1F783E06EC06CE0CE010E940F04982E68
:1009D000837109F065C0A114B10409F459C0611410
:1009E000710409F455C064E1CE010E940F04182F70
:1009F000F3018081811708F44FC010831123F1F1B6
:100A000083E590E00E94820360E08E850E94D6011B
:100A100082E90E947B03CC20A9F08FEF90E09C013B
:100A200002C0220F331FCA94E2F7690182E90E94D3
:100A30007B038C21C094F5019081C922C82AC08211
:100A400001E001C000E01150402F50E0011750F4C8
:100A50006501C40ED51E82E90E947B03F6018083E6
:100A60000F5FF2CF8501040F151F80E00E947B030A
:100A7000F801808361E08E850E94D60168E1CE0195
:100A80000E940F048770E114F10411F0F7018083D4
:100A900093FC04C080E005C084E003C082E001C094
:100AA00081E0DF91CF911F910F91FF90EF90DF9048
:100AB000CF90BF90AF909F908F907F906F90089550
:100AC000CF92DF92EF92FF920F931F93CF93DF931A
:100AD000EC016B01142F790140E062E00E94660492
:100AE00044E06AE0CE010E94660440E864E1CE0181
:100AF0000E946604A601612FCE010E942D0443E0EE
:100B000062E0CE010E94660408E813E16AE0CE01CB
:100B10000E940F0482FF13C040E062E0CE010E94F9
:100B2000660464E4CE010E940F04F701808362E44E
:100B3000CE010E940F04F701818380E004C00150C0
:100B4000110921F783E0DF91CF911F910F91FF9061
:100B5000EF90DF90CF900895EF92FF921F93CF9385
:100B6000DF931F92CDB7DEB77C01162F49830E9419
:100B70000F04498140954823612FC7010F90DF91F1
:100B8000CF911F91FF90EF900C946604AF92BF92AB
:100B9000CF92EF92FF920F931F93CF93DF9300D0EA
:100BA00000D01F92CDB7DEB75C0182E08D8340E0BC
:100BB00064E2C5010E94660440E066E2C5010E944D
:100BC000660446E268E4C5010E94660486E28C83FE
:100BD0008D81823010F140E86CE1C5010E94AC05C6
:100BE00087E08B83C12CCE0103967C018E010B5FC5
:100BF0001F4F9E012F5F3F4F41E0BE016C5F7F4F53
:100C0000C5010E948C0481110BC08D81823039F4A2
:100C100081E09B81911104C008C084E001C081E0A3
:100C200091E0823019F090E001C091E0892F0F909F
:100C30000F900F900F900F90DF91CF911F910F9118
:100C4000FF90EF90CF90BF90AF9008952F923F927A
:100C50004F925F926F927F928F929F92AF92BF92CC
:100C6000CF92DF92EF92FF920F931F93CF93DF9378
:100C7000CDB7DEB72D970FB6F894DEBF0FBECDBF50
:100C8000413508F00EC1342E4B015C0140E86CE1A7
:100C90000E94AC052224239444244394512C22E046
:100CA000221691F033E02316E1F041E02412FDC05A
:100CB00083E989833320D1F081E0F401908195307C
:100CC00008F480E0D12C17C085E98983332081F0B6
:100CD00081E0F4019081983008F480E043E0D42E64
:100CE0000AC087E9898336E0D32E04C0D12C02C024
:100CF00023E0D22E80E0532DF8EFDF9E500D11241B
:100D000057FD50E0882321F098E89B8343E001C021
:100D100042E021E0952F977009F420E0952F9595FA
:100D200095959595290F29F4882309F498C0585F63
:100D300096C0811102C094E001C093E0291708F425
:100D4000922F20E030E06D2D70E0E42FE20FA1E063
:100D5000B0E0AC0FBD1FAE0FB11DF901E60FF71FDC
:100D6000E80DF91DE181EC932F5F3F4F291768F3E0
:100D7000DBCF8111E6C050320CF099C050E220E781
:100D80002A839C818B8189279D8189279E81892740
:100D90008F839E01285F3F4F47E0BE016F5F7F4F0B
:100DA000C5015D870E9460055D858111CAC01B86F3
:100DB00033E03A87CE0107963C0179E0CB844C2D95
:100DC0004295407F4C0D6AE1C5015D877C870E949A
:100DD00066049E01255F3F4F79018E01065F1F4F1C
:100DE00093017C85472FBE016F5F7F4FC5010E9435
:100DF0008C045D85823009F0BCCF6CE1C5010E9496
:100E00000F045D8585FD4FC08F7109F480E2282FA6
:100E100030E0452F550F550B421753070CF045C0D6
:100E2000582FC901019787709927259525952595F4
:100E300031E0320F21E0009709F420E0230FE1E0D8
:100E4000F0E0EC0FFD1FE20FF11D920102C0220F36
:100E5000331F8A95E2F7C9019081892B8083503234
:100E60000CF08DCF952F97709B87252F2595259575
:100E7000259582E0820F392FE0E18E9F300D1124FD
:100E80003A8371E0911101C070E0780F6624639499
:100E9000712C6C0E7D1E680E711C87E0821B8A8788
:100EA0008DCF86E04EC082E04CC085E04AC08B8189
:100EB000883809F043C033E023E080E090E06D2DF6
:100EC00070E0FC01E60FF71FE80DF91D432F480FF6
:100ED000A1E0B0E0AC0FBD1FA40FB11D4C91418348
:100EE0000196821770F38A85833021F58B858111F5
:100EF00021C09E012D5F3F4F41E0B301C5010E941B
:100F0000600581111EC09B81F3018181981314C07B
:100F10009C818281981310C0808182FF02C023943B
:100F2000BECEF4018387822D880F280E2394208261
:100F300080E007C081E005C087E003C032E024E024
:100F4000BCCF2D960FB6F894DEBF0FBECDBFDF919C
:100F5000CF911F910F91FF90EF90DF90CF90BF90B6
:100F6000AF909F908F907F906F905F904F903F9049
:100F70002F9008950E94070B1F920F920FB60F92A9
:100F800011242F933F938F939F93AF93BF9380919F
:100F9000720190917301A0917401B091750130912B
:100FA000710123E0230F2D3720F40196A11DB11DFF
:100FB00005C026E8230F0296A11DB11D20937101E3
:100FC0008093720190937301A0937401B0937501A3
:100FD0008091760190917701A0917801B09179018B
:100FE0000196A11DB11D8093760190937701A09386
:100FF0007801B0937901BF91AF919F918F913F910B
:101000002F910F900FBE0F901F9018951F920F9267
:101010000FB60F9211242F933F934F935F936F93CB
:101020007F938F939F93AF93BF93EF93FF938AE741
:1010300091E00E94A902FF91EF91BF91AF919F9122
:101040008F917F916F915F914F913F912F910F9071
:101050000FBE0F901F9018951F920F920FB60F9210
:1010600011242F938F939F93EF93FF93E0918A0125
:10107000F0918B018081E0919001F091910182FDCE
:1010800012C09081809193018F5F8F7320919401A2
:10109000821751F0E0919301F0E0E658FE4F958FF2
:1010A0008093930101C08081FF91EF919F918F9177
:1010B0002F910F900FBE0F901F901895EAE7F1E067
:1010C0001382128288EE93E0A0E0B0E084839583DF
:1010D000A683B78385E491E09183808385EC90E0DB
:1010E0009587848784EC90E09787868780EC90E0F2
:1010F000918B808B81EC90E0938B828B82EC90E0E3
:10110000958B848B86EC90E0978B868B118E128E5C
:10111000138E148EE7E1F2E087E591E091838083FE
:101120008AE0868789E087870895CF93DF9300D090
:1011300000D0CDB7DEB7789484B5826084BD84B525
:10114000816084BD85B5826085BD85B5816085BDC2
:1011500080916E00816080936E001092810080917A
:101160008100826080938100809181008160809302
:101170008100809180008160809380008091B10027
:1011800084608093B1008091B00081608093B00052
:1011900080917A00846080937A0080917A008260E6
:1011A00080937A0080917A00816080937A008091A8
:1011B0007A00806880937A001092C100E0918A01E1
:1011C000F0918B0182E08083E0918601F0918701AC
:1011D0001082E0918801F09189018FEC8083109258
:1011E0009201E0918E01F0918F0186E08083E09181
:1011F0008C01F0918D01808180618083E0918C0170
:10120000F0918D01808188608083E0918C01F09164
:101210008D01808180688083E0918C01F0918D0147
:1012200080818F7D80831FB7F89480916601811142
:1012300024C0E6E6F2E08491EAE7F2E09491E82F38
:10124000F0E0EE0FFF1FEE5AFD4FA591B491EC9127
:10125000E92321F461E08AE00E94D6018AE00E943D
:101260008E018CB580618CBD8CB580648CBD8DE0A9
:101270000E948E018BE00E948E01809166018F5F3B
:10128000809366011FBF809125020E948E0161E05C
:10129000809125020E94D601809126028F3F49F459
:1012A0004FE062E087E192E00E9466040E942B0218
:1012B00024C00E948E012091260230E0F901EC5CEE
:1012C000FD4F8491F901E059FD4F0491F901E45A71
:1012D000FD4F1491112309F46AC181110E94AD01DF
:1012E000E12FF0E0EE0FFF1FE859FF4FA591B491F9
:1012F000EC91E02309F45BC1D3CF62E087E192E097
:101300000E940F0484FDF9CF40E064E287E192E09F
:101310000E94660440E066E287E192E00E94660473
:1013200046E268E487E192E00E94660440E864E5F2
:1013300087E192E00E94660449EA66E587E192E06F
:101340000E94660443E068E587E192E00E9466043B
:1013500048EE6AE587E192E00E94660440E46AE2B2
:1013600087E192E00E9466044DE362E287E192E049
:101370000E94660468E287E192E00E940F04982FC1
:101380009370933039F0482F436068E287E192E030
:101390000E9466048FEF80936701809368018093B9
:1013A000690180936A0180936B0180936C018BE8E3
:1013B00090E00E94D80382E790E00E946D0166E011
:1013C00087E691E00E94E60387E192E00E94C6056D
:1013D000882309F4E9C087E192E00E946C03882326
:1013E00009F4E2C088E292E00E946D01E0912402DB
:1013F000EF77E134B0F5F0E0E050FF4F10811530A9
:1014000021F178F4123089F128F4113059F585E88A
:1014100091E02DC01330B1F0143021F58BE391E051
:1014200026C01830C1F038F4163091F01730D1F4DE
:1014300082E091E01CC0193089F01F3F99F481ECE3
:1014400090E015C086E491E012C080E391E00FC007
:101450008EE091E00CC083EF90E009C084EE90E054
:1014600006C010E084EB90E002C08DE591E00E94A0
:10147000D8031350133028F080E092E00E94D80384
:1014800093C090911A0280916D01981313C09091AE
:101490001B0280916E0198130DC090911C028091E7
:1014A0006F01981307C090911D02809170019817E9
:1014B00009F451C082EE91E00E94D80380911A0293
:1014C00080936D0180911B0280936E0180911C02BC
:1014D00080936F0180911D028093700181ED91E0F6
:1014E0000E94D80388EC91E00E946D01609119027E
:1014F0008AE192E00E94E6038DE591E00E94850377
:101500008FEB91E00E946D01D09019028AE1E82EE4
:1015100082E0F82E8701802F8E198D15B8F45801BE
:10152000F8018081803118F083E691E002C080E606
:1015300091E00E9485030F5F1F4FF501608170E00D
:1015400080E090E04AE00E949703E5CF8DE591E0CE
:101550000E94850304C089EA91E00E94D80380E5D7
:1015600089831A829E012D5F3F4F42E0BE016F5F6B
:101570007F4F87E192E00E94600581110FC0C12C6E
:10158000E12CF12C00E010E020E030E044E0BE016E
:101590006F5F7F4F87E192E00E948C0448E060E13A
:1015A00087E192E00E94AC050E9433030DCF61E019
:1015B000809126020E94D6010E942B02A5CEA1E2B4
:1015C0001A2EAA1BBB1BFD010DC0AA1FBB1FEE1FBD
:1015D000FF1FA217B307E407F50720F0A21BB30B08
:1015E000E40BF50B661F771F881F991F1A9469F784
:1015F00060957095809590959B01AC01BD01CF01E0
:101600000895EE0FFF1F0590F491E02D099481E0FD
:0C16100090E0F8940C940C0BF894FFCFC1
:10161C0006090000FF0000000403000000000000A9
:10162C00070700000000000005000000000000009B
:10163C00010000000000000000000000000000009D
:10164C00000000000000000000000000000000008E
:10165C000200000000CA023D0362021103930271F2
:10166C00028502000000002606C6056C030D0A0068
:06167C00203000200000F8
:00000001FF
